:020000040800F2
:10000000000005202D4000087D400008B73E000894
:10001000B93E0008BB3E0008BD3E000800000000DD
:100020000000000000000000000000007D4000080B
:100030007D400008000000007D4000087D40000871
:100040007D4000087D4000087D4000087D4000089C
:100050007D4000087D4000087D4000087D4000088C
:100060007D4000087D4000087D4000087D4000087C
:100070007D4000087D4000087D4000087D4000086C
:100080007D4000087D4000087D4000087D4000085C
:100090007D4000087D4000087D4000087D4000084C
:1000A0007D400008E13B00087D4000087D400008DD
:1000B0007D4000087D4000087D4000087D4000082C
:1000C0007D4000087D4000087D4000087D4000081C
:1000D0007D4000087D4000087D4000087D4000080C
:1000E0007D4000087D4000087D4000087D400008FC
:1000F0007D4000087D4000087D4000087D400008EC
:100100007D4000087D4000087D4000087D400008DB
:100110007D4000087D4000087D4000087D400008CB
:100120007D4000087D4000087D4000087D400008BB
:100130007D4000087D4000087D4000087D400008AB
:100140007D4000087D4000087D4000087D4000089B
:100150007D4000087D4000087D4000087D4000088B
:100160007D4000087D4000087D4000087D4000087B
:100170007D4000087D4000080000000000000000F5
:100180007D400008B53E00087D4000087D40000825
:100190007D4000087D400008000000007D40000810
:1001A0007D4000087D4000080000000000000000C5
:1001B0007D40000800000000000000007D400008B5
:1001C0007D4000087D4000087D4000087D4000081B
:0801D0007D4000087D4000089D
:1001E00010B5054C237833B9044B13B10448AFF371
:1001F00000800123237010BDEC01002000000000EE
:10020000B851000808B5034B1BB103490348AFF3CD
:10021000008008BD00000000F0010020B851000877
:1002200001F0FF01102A2BDB10F0070F08D010F8A7
:10023000013B013A8B422DD010F0070F42B3F6D1AB
:10024000F0B441EA012141EA014122F007047FF0C4
:1002500000070023F0E80256083C85EA010586EA1B
:10026000010685FA47F5A3FA87F586FA47F6A5FA57
:1002700087F68EB9EED1F0BC01F0FF0102F0070263
:1002800032B110F8013B013A83EA010313B1F8D10E
:100290000020704701387047002D06BF35460338EF
:1002A000073815F0010F07D1013015F4807F02BF28
:1002B000013015F4C03F0130F0BC0138704700BF79
:1002C000034613F8012B002AFBD1181A0138704796
:1002D00081F0004102E000BF83F0004330B54FEAF7
:1002E00041044FEA430594EA050F08BF90EA020F64
:1002F0001FBF54EA000C55EA020C7FEA645C7FEAF7
:10030000655C00F0E2804FEA5454D4EB5555B8BF19
:100310006D420CDD2C4480EA020281EA030382EA8A
:10032000000083EA010180EA020281EA0303362D1C
:1003300088BF30BD11F0004F4FEA01314FF4801CEF
:100340004CEA113102D0404261EB410113F0004F01
:100350004FEA03334CEA133302D0524263EB4303B8
:1003600094EA050F00F0A780A4F10104D5F1200E56
:100370000DDB02FA0EFC22FA05F2801841F10001B1
:1003800003FA0EF2801843FA05F359410EE0A5F185
:1003900020050EF1200E012A03FA0EFC28BF4CF0B6
:1003A000020C43FA05F3C01851EBE37101F000456C
:1003B00007D54FF0000EDCF1000C7EEB00006EEB79
:1003C0000101B1F5801F1BD3B1F5001F0CD3490803
:1003D0005FEA30004FEA3C0C04F101044FEA44525A
:1003E00012F5800F80F09A80BCF1004F08BF5FEAE1
:1003F000500C50F1000041EB045141EA050130BDC1
:100400005FEA4C0C404141EB0101013C28BFB1F5D2
:10041000801FE9D291F0000F04BF01460020B1FA1D
:1004200081F308BF2033A3F10B03B3F120020CDAF0
:100430000C3208DD02F1140CC2F10C0201FA0CF0CE
:1004400021FA02F10CE002F11402D8BFC2F1200C33
:1004500001FA02F120FA0CFCDCBF41EA0C019040E9
:10046000E41AA2BF01EB0451294330BD6FEA040432
:100470001F3C1CDA0C340EDC04F11404C4F120021D
:1004800020FA04F001FA02F340EA030021FA04F32F
:1004900045EA030130BDC4F10C04C4F1200220FA86
:1004A00002F001FA04F340EA0300294630BD21FAC4
:1004B00004F0294630BD94F0000F83F4801306BF8A
:1004C00081F480110134013D4EE77FEA645C18BF7E
:1004D0007FEA655C29D094EA050F08BF90EA020F15
:1004E00005D054EA000C04BF1946104630BD91EA0D
:1004F000030F1EBF0021002030BD5FEA545C05D110
:100500004000494128BF41F0004130BD14F580044E
:100510003CBF01F5801130BD01F0004545F0FE41C2
:1005200041F470014FF0000030BD7FEA645C1ABFF7
:10053000194610467FEA655C1CBF0B46024650EA2E
:10054000013406BF52EA033591EA030F41F400215A
:1005500030BD00BF90F0000F04BF0021704730B5E0
:100560004FF4806404F132044FF000054FF00001B5
:1005700050E700BF90F0000F04BF0021704730B576
:100580004FF4806404F1320410F0004548BF40424B
:100590004FF000013EE700BF42004FEAE2014FEAA0
:1005A00031014FEA02701FBF12F07F4393F07F4F7B
:1005B00081F06051704732F07F4208BF704793F07E
:1005C0007F4F04BF41F40021704730B54FF4607491
:1005D00001F0004521F000411CE700BF50EA010294
:1005E00008BF704730B54FF000050AE050EA01023D
:1005F00008BF704730B511F0004502D5404261EBAD
:1006000041014FF4806404F132045FEA915C3FF4ED
:10061000D8AE4FF003025FEADC0C18BF03325FEA8A
:10062000DC0C18BF033202EBDC02C2F1200300FA3B
:1006300003FC20FA02F001FA03FE40EA0E0021FA60
:1006400002F11444BDE600BF70B54FF0FF0C4CF44E
:10065000E06C1CEA11541DBF1CEA135594EA0C0F00
:1006600095EA0C0F00F0DEF82C4481EA030621EA3B
:100670004C5123EA4C5350EA013518BF52EA033576
:1006800041F4801143F4801338D0A0FB02CE4FF028
:100690000005E1FB02E506F00042E0FB03E54FF058
:1006A0000006E1FB03569CF0000F18BF4EF0010E50
:1006B000A4F1FF04B6F5007F64F5407404D25FEA4C
:1006C0004E0E6D4146EB060642EAC62141EA5551FF
:1006D0004FEAC52040EA5E504FEACE2EB4F1FD0C41
:1006E00088BFBCF5E06F1ED8BEF1004F08BF5FEABF
:1006F000500E50F1000041EB045170BD06F0004671
:1007000046EA010140EA020081EA0301B4EB5C041D
:10071000C2BFD4EB0C0541EA045170BD41F4801115
:100720004FF0000E013C00F3AB8014F1360FDEBF3A
:10073000002001F0004170BDC4F10004203C35DA16
:100740000C341BDC04F11404C4F1200500FA05F399
:1007500020FA04F001FA05F240EA020001F000423A
:1007600021F0004110EBD37021FA04F642EB0601B0
:100770005EEA430E08BF20EAD37070BDC4F10C04DA
:10078000C4F1200500FA04F320FA05F001FA04F29E
:1007900040EA020001F0004110EBD37041F100018A
:1007A0005EEA430E08BF20EAD37070BDC4F1200595
:1007B00000FA05F24EEA020E20FA04F301FA05F2FD
:1007C00043EA020321FA04F001F0004121FA04F2A5
:1007D00020EA020000EBD3705EEA430E08BF20EA75
:1007E000D37070BD94F0000F0FD101F000464000AF
:1007F00041EB010111F4801F08BF013CF7D041EA31
:10080000060195F0000F18BF704703F00046520034
:1008100043EB030313F4801F08BF013DF7D043EA05
:100820000603704794EA0C0F0CEA135518BF95EABB
:100830000C0F0CD050EA410618BF52EA4306D1D142
:1008400081EA030101F000414FF0000070BD50EA61
:10085000410606BF1046194652EA430619D094EAEB
:100860000C0F02D150EA013613D195EA0C0F05D1D5
:1008700052EA03361CBF104619460AD181EA030129
:1008800001F0004141F0FE4141F470014FF00000E1
:1008900070BD41F0FE4141F4780170BD70B54FF07C
:1008A000FF0C4CF4E06C1CEA11541DBF1CEA1355FC
:1008B00094EA0C0F95EA0C0F00F0A7F8A4EB0504DE
:1008C00081EA030E52EA03354FEA013100F08880D5
:1008D0004FEA03334FF0805545EA131343EA12639E
:1008E0004FEA022245EA111545EA10654FEA002653
:1008F0000EF000419D4208BF964244F1FD0404F50C
:10090000407402D25B084FEA3202B61A65EB030567
:100910005B084FEA32024FF480104FF4002CB6EB24
:10092000020E75EB030E22BFB61A754640EA0C00A4
:100930005B084FEA3202B6EB020E75EB030E22BFE4
:10094000B61A754640EA5C005B084FEA3202B6EB25
:10095000020E75EB030E22BFB61A754640EA9C00E4
:100960005B084FEA3202B6EB020E75EB030E22BFB4
:10097000B61A754640EADC0055EA060E18D04FEA72
:10098000051545EA16754FEA06164FEAC30343EA12
:1009900052734FEAC2025FEA1C1CC0D111F4801FDF
:1009A0000BD141EA00014FF000004FF0004CB6E7D8
:1009B00011F4801F04BF01430020B4F1FD0C88BF77
:1009C000BCF5E06F3FF6AFAEB5EB030C04BFB6EB82
:1009D000020C5FEA500C50F1000041EB045170BD75
:1009E0000EF0004E4EEA113114EB5C04C2BFD4EBA2
:1009F0000C0541EA045170BD41F480114FF0000E26
:100A0000013C90E645EA060E8DE60CEA135594EAA1
:100A10000C0F08BF95EA0C0F3FF43BAF94EA0C0FA4
:100A20000AD150EA01347FF434AF95EA0C0F7FF419
:100A300025AF104619462CE795EA0C0F06D152EA6D
:100A400003353FF4FDAE1046194622E750EA410651
:100A500018BF52EA43067FF4C5AE50EA41047FF462
:100A60000DAF52EA43057FF4EBAE12E74FF0FF3CC7
:100A700006E000BF4FF0010C02E000BF4FF0010C98
:100A80004DF804CD4FEA410C7FEA6C5C4FEA430C11
:100A900018BF7FEA6C5C1BD001B050EA410C0CBF60
:100AA00052EA430C91EA030F02BF90EA020F0020C2
:100AB000704710F1000F91EA030F58BF994208BF29
:100AC00090422CBFD8176FEAE37040F001007047E6
:100AD0004FEA410C7FEA6C5C02D150EA013C07D13D
:100AE0004FEA430C7FEA6C5CD6D152EA033CD3D088
:100AF0005DF8040B704700BF8446104662468C4682
:100B00001946634600E000BF01B5FFF7B7FF0028B4
:100B100048BF10F1000F01BD4DF808EDFFF7F4FFDD
:100B20000CBF012000205DF808FB00BF4DF808ED68
:100B3000FFF7EAFF34BF012000205DF808FB00BF8B
:100B40004DF808EDFFF7E0FF94BF012000205DF8AD
:100B500008FB00BF4DF808EDFFF7CEFF94BF012062
:100B600000205DF808FB00BF4DF808EDFFF7C4FF5B
:100B700034BF012000205DF808FB00BF4FEA410CA4
:100B80007FEA6C5C02D150EA013C0AD14FEA430C87
:100B90007FEA6C5C02D152EA033C02D14FF00000C4
:100BA00070474FF0010070474FEA410212F5001202
:100BB00015D211D56FF47873B3EB625212D94FEAA4
:100BC000C12343F0004343EA505311F0004F23FA8E
:100BD00002F018BF404270474FF00000704750EAE3
:100BE000013005D111F0004008BF6FF000407047A0
:100BF0004FF00000704700BF4FEA4102B2F1E043FE
:100C000024BFB3F5001CDCF1FE5C0DD901F0004CF3
:100C10004FEAC0024CEA5070B2F1004F40EB830043
:100C200008BF20F00100704711F0804F21D113F16F
:100C30003872BCBF01F00040704741F480114FEAA8
:100C40005252C2F11802C2F1200C10FA0CF320FA31
:100C500002F018BF40F001004FEAC1234FEAD3234E
:100C600003FA0CFC40EA0C0023FA02F34FEA4303B8
:100C7000CCE77FEA625307D150EA01331EBF4FF041
:100C8000FE4040F44000704701F0004040F0FE405C
:100C900040F40000704700BF2DE9FF4755EC104BB2
:100CA000002D0E4619462B46BBBF05F100431D46DD
:100CB00000232D230B700D9BDDF830A0914623F00F
:100CC0002008BCBF22461446B8F1460F05D0B8F143
:100CD000450F00D10136022100E0032103AB01934F
:100CE00002AB009345EC104B5346324600F044FEF5
:100CF000B8F1470F074602D119F0010F22D0B8F121
:100D0000460F07EB060910D13B78302B0AD10022A1
:100D1000002320462946FFF7FFFE18B9C6F1010659
:100D2000CAF80060DAF80030994400220023204617
:100D30002946FFF7F1FE08B1CDF80C903022039B55
:100D40004B4507D3039B0E9ADB1B3846136004B058
:100D5000BDE8F087591C03911A70F0E7F7B5034618
:100D60000029B8BF494203F8022BB4BF2D222B2221
:100D7000092942702ADD0DF1070217460A2694461A
:100D800091FBF6F506FB151430340CF8014C0C46BB
:100D9000632C02F1FF322946F1DC3031ACF1020460
:100DA00002F8011C411C2246BA420AD30DF1090285
:100DB000A2EB0C02BC4288BF00221344181A03B0F5
:100DC000F0BD12F8015B01F8015FEDE7302330312F
:100DD0008370C170031DF1E72DE9F04F2DED028BFB
:100DE0008DB00C46DDF8608016461F46054600F0C3
:100DF000C7FCD0F800A05046FFF762FA00230A9320
:100E000023680593D8F8003094F818B0073323F01E
:100E1000070303F10802C8F80020D3E9008929F08C
:100E200000430793CDF8188008EE100AC4E9128930
:100E3000DDE906019E4B4FF0FF32FFF79FFE88BBB6
:100E4000DDE906019A4B4FF0FF32FFF779FE48BB10
:100E50000022002340464946FFF768FE10B12D23CB
:100E600084F84330934A944BBBF1470F94BF9046AC
:100E7000984603232361059B23F0040323604FF06E
:100E80000009009733460BAA2146284600F0DAF9FC
:100E9000013040F090804FF0FF300DB0BDEC028B80
:100EA000BDE8F08F42464B4640464946FFF766FE96
:100EB00040B14B46002BBCBF2D2384F843307F4A02
:100EC0007F4BD1E763680BF0DF0206925A1C3FD1DB
:100ED00006236360059B616843F4806200230393EB
:100EE0000AABCDE901B309AB49EC108B009322604A
:100EF0000DF123032846FFF7CFFE069B0999472BE8
:100F0000804608D1C81C02DB6368994241DDABF121
:100F100002035FFA83FBBBF1650F20D801395A4603
:100F200004F150000991FFF719FF0A9A1318012ADA
:100F30008146236102DC2268D20701D50133236197
:100F40009DF82330002B9CD02D2384F8433098E764
:100F5000069A472ABED1002BBCD10123B9E7BBF1C9
:100F6000660F18D1002963680BDD216113B922686F
:100F7000D00702D501330B442361A1654FF000096E
:100F8000DEE713B92268D20701D50233F4E7012363
:100F9000F2E74FF0670B0A9B994205DB236821615A
:100FA000D807EAD54B1CE7E70029D4BFC1F10202FC
:100FB00001221344E0E723685A0507D42369424617
:100FC00031462846B84701302CD164E7BBF1650FA4
:100FD00040F2E080D4E9120100220023FFF79CFDDB
:100FE000002834D0374A012331462846B84701301B
:100FF0003FF451AFDDE909239A4202DB2368D807A9
:1010000010D518EE103A524631462846B8470130FE
:101010003FF441AF4FF0000804F11A090A9B013B6D
:10102000434509DC23689B0700F10781E0680B9BBF
:101030009842B8BF184630E701234A463146284651
:10104000B84701303FF427AF08F10108E6E7099BF4
:10105000002B39DC1B4A012331462846B8470130B2
:101060003FF419AFDDE90932134302D12368D907F0
:10107000D8D518EE103A524631462846B8470130C6
:101080003FF409AF4FF0000904F11A0A099B5B42D3
:101090004B4501DC0A9B92E7012352463146284624
:1010A000B84701303FF4F7AE09F10109EEE700BFA0
:1010B000FFFFEF7FD0510008D4510008D85100083D
:1010C000DC510008E05100080A9AA36D9A42A8BFBB
:1010D0001A46002A914637DC4FF0000B29EAE979DD
:1010E00004F11A02A36D0593A3EB09035B4533DCFE
:1010F000DDE909239A423BDB2368DA0738D4DDE9CE
:101100000932A2EB0309059BD21A9145A8BF91466B
:10111000B9F1000F35DC4FF0000829EAE97904F154
:101120001A0ADDE909239B1AA3EB090343457FF75C
:1011300079AF0123524631462846B84701303FF483
:10114000AAAE08F10108ECE71346314642462846AC
:10115000B8470130C0D19EE60123314628460592AA
:10116000B84701303FF497AE059A0BF1010BB9E790
:1011700018EE103A524631462846B8470130BED1E3
:1011800089E6059A4B46424431462846B847013025
:10119000C1D180E60A9A012A01DCDB073AD5012396
:1011A000424631462846B84701303FF474AE18EE47
:1011B000103A524631462846B84701303FF46BAEEC
:1011C000D4E9120100220023DDF828A0FFF7A4FCD7
:1011D000D8B90AF1FF3308F1010231462846B84771
:1011E00001300ED157E60123524631462846B84712
:1011F00001303FF450AE08F101080A9B013B434522
:10120000F1DC4B4604F15002DAE64FF0000804F13D
:101210001A0AF2E701234246DFE701234A46314634
:101220002846B84701303FF436AE08F10108E368BC
:101230000B995B1A4345F0DCF8E64FF0000804F127
:101240001909F4E72DE9F047164699468A680B69B3
:10125000DDF820809342B8BF1346336091F84320F5
:1012600007460C460AB1013333602368990642BF32
:10127000336802333360256815F0060506D104F1A2
:10128000190AE36832689B1AAB4226DC94F84320C3
:10129000131E226818BF012392062BD404F14302C7
:1012A00049463846C04701301ED02368226903F002
:1012B0000603042B02BFE5683368ED1AA3680CBF70
:1012C00025EAE57500259342C4BF9B1AED18002658
:1012D0001A34B5421AD1002008E00123524649468B
:1012E0003846C047013003D14FF0FF30BDE8F087EA
:1012F0000135C6E7E1185A1C302081F8430022442A
:1013000094F8451082F843100233C7E701232246C0
:1013100049463846C0470130E6D00136D9E70000DB
:101320002DE9FF470F7E0C9D782F914680460C4695
:101330009A4601F1430207D8622F0AD8002F00F025
:10134000D480582F00F0C08004F1420584F8427028
:101350003AE0A7F16303152BF6D801A151F823F069
:10136000B9130008CD1300084913000849130008F9
:101370004913000849130008CD1300084913000859
:10138000491300084913000849130008D114000844
:10139000F91300088B1400084913000849130008CA
:1013A000F314000849130008F91300084913000852
:1013B00049130008931400082B681A1D1B682A6043
:1013C00004F1420584F8423001239FE020682B6835
:1013D000070603F10401296001D51E6803E04606F3
:1013E000FBD5B3F90060002E03DA2D23764284F892
:1013F00043305A480A2312E02B682068191D2960DF
:10140000050601D51E6802E04106FBD51E8853483B
:101410006F2F0CBF08230A23002184F8431065684E
:10142000A560002DA2BF216821F0040121600EB942
:10143000002D4BD01546B6FBF3F103FB1167C75DDA
:1014400005F8017D3746BB420E46F4D9082B0BD177
:101450002368DE0708D5236961689942DEBF30231F
:1014600005F8013C05F1FF35521B2261CDF800A0C3
:101470004B4603AA21464046FFF7E4FE01304AD11D
:101480004FF0FF3004B0BDE8F087236843F020033D
:1014900023603348782784F84570236829681F063D
:1014A00051F8046B02D45F0648BFB6B2DF0748BFED
:1014B00043F02003296048BF23601EB9236823F04E
:1014C000200323601023A7E72448E4E71546BDE77F
:1014D0002B6826686169181D286035061B6801D5D0
:1014E000196002E07006FBD51980002323611546C0
:1014F000BCE72B681A1D2A601D6862680021284617
:10150000FEF78EFE08B1401B606063682361002314
:1015100084F84330AAE723692A4649464046D04723
:101520000130ADD023689B0713D4E068039B984239
:10153000B8BF1846A6E70123324649464046D04781
:1015400001309DD00135E36803995B1AAB42F2DCB0
:10155000EBE7002504F11906F5E700BFE2510008AA
:10156000F3510008002310B50446C0E90033C0E978
:101570000433836081814366C281836119460822F6
:101580005C3000F0F4F80D4B63620D4BA3620D4B21
:10159000E3620D4B23630D4B24629C4206D003F1A2
:1015A0006802944202D0D0339C4205D104F1580025
:1015B000BDE8104000F052B910BD00BFE9160008A8
:1015C0000B170008431700086717000808020020DF
:1015D000024A0349034800F069B800BF0000002038
:1015E000612F00080C00002041680C4B994210B597
:1015F000044601D001F0B4FCA168094B994202D025
:10160000204601F0ADFCE168064B994204D020462B
:10161000BDE8104001F0A4BC10BD00BF08020020CE
:1016200070020020D802002010B50B4B0B4C0C4A66
:101630001A60204600220421FFF794FF04F168009D
:1016400001220921FFF78EFF04F1D0000222BDE83C
:1016500010401221FFF786BF40030020080200203F
:10166000D1150008014800F0FAB800BF4903002076
:10167000014800F0F5B800BF4903002010B504464A
:10168000FFF7F0FF236A1BB1BDE81040FFF7F0BF82
:10169000044B2362044B1B68002BF5D1FFF7C4FFFA
:1016A000F2E700BFE9150008400300202DE9F843E8
:1016B0000746884614460026D4E90195B9F1010988
:1016C00005D52468002CF7D13046BDE8F883AB89F6
:1016D000012B07D9B5F90E30013303D0294638461E
:1016E000C04706436835E9E710B50C46B1F90E105E
:1016F00000F06CF80028ABBF636DA3891B1823F4BE
:101700008053ACBF6365A38110BD2DE9F0411F4636
:101710008B89DB0505460C46164605D5B1F90E103A
:101720000223002200F040F8A389B4F90E1023F43C
:101730008053A38132463B462846BDE8F04100F085
:1017400057B810B50C46B1F90E1000F02DF8431C37
:10175000A38915BF606523F4805343F48053A381AC
:1017600018BFA38110BDB1F90E1000F00DB80244EE
:101770000346934200D1704703F8011BF9E70000CC
:10178000004870474C01002038B5064D0023044640
:1017900008462B6002F0C1FB431C02D12B6803B149
:1017A000236038BD4403002038B5074D0446084681
:1017B000114600222A601A4602F0B9FB431C02D1EE
:1017C0002B6803B1236038BD4403002038B5074DB2
:1017D00004460846114600222A601A4602F07FFBA2
:1017E000431C02D12B6803B1236038BD44030020A1
:1017F00038B5074D04460846114600222A601A46AD
:1018000002F07DFB431C02D12B6803B1236038BD7D
:101810004403002070B50D4D0D4C641BA410002630
:10182000A64209D10B4D0C4C03F0C6FC641BA4105E
:101830000026A64205D170BD55F8043B98470136F5
:10184000EEE755F8043B98470136F2E730570008B9
:101850003057000830570008345700087047704769
:1018600070472DE9F74F03690C69A34207467EDBF9
:10187000013C01F1140800F1140505EB8403019308
:1018800058F8243055F8242001339A424FEA840B4B
:1018900008EB8409B2FBF3F631D34FF0000E40465B
:1018A000AC46F24650F8042B93B206FB03E34FEA32
:1018B000124E1A0C9BB2AAEB0303DCF800A013FA39
:1018C0008AF306FB0E220093009B4FEA124E92B25F
:1018D000C2EB1A4202EB2342BDF80030814543EAD5
:1018E00002434CF8043B4FEA224ADBD255F80B3056
:1018F0002BB9019B043B9D421A462CD33C613846D0
:1019000001F0A8F9002822DB01362946002058F80A
:10191000042BD1F800C093B2C31A120C13FA8CF343
:10192000C2EB1C4202EB23429BB243EA0243C14595
:1019300041F8043B4FEA2240E9D255F8242005EB58
:10194000840322B9043B9D421A460AD33C613046C7
:1019500003B0BDE8F08F1268043B002ACED1013CF1
:10196000C9E71268043B002AF0D1013CEBE70020F4
:10197000EEE70000000000002DE9F04F2DED048B94
:10198000C56993B08DED020B57EC106BDDF88080CC
:10199000079104460A920D9375B9102000F02AFEB3
:1019A0000246E06120B9AE4BEF21AE4801F01EFBCC
:1019B000C0E901550560C560E369196851B15A680D
:1019C0004A60012393408B60204600F007FFE369E3
:1019D00000221A603B1EBBBF23F000430393002389
:1019E0000122ACBFC8F80030C8F800209E4BDDF8DB
:1019F0000C8033EA08031BD10D9A42F20F73136077
:101A0000C8F31303334300F09385219B63B9974BCD
:101A100027E0974B00930833219A1360009813B086
:101A2000BDEC048BBDE8F08F904B00930333F3E7DC
:101A30009DED027B002251EC170BB0EE478AF0EED1
:101A4000678A0023FFF768F8814660B10D9A012389
:101A50001360219B002B00F06885864B219A136050
:101A6000013B0093DAE710AA11A92046B0EE480A1C
:101A7000F0EE680A01F094F9C8F30A558246002D89
:101A80007FD018EE903AC3F3130343F07F5351EC29
:101A9000180B43F44013A5F2FF35CDF838901946E2
:101AA0000022754BFEF718FC67A3D3E90023FEF76D
:101AB000CBFD67A3D3E90023FEF710FC06462846BA
:101AC0000F46FEF757FD64A3D3E90023FEF7BCFDE4
:101AD00002460B4630463946FEF700FC06460F46E6
:101AE000FFF762F800228346002330463946FFF7AD
:101AF0001DF848B15846FEF73DFD32463B46FFF71C
:101B00000BF808B90BF1FF3BBBF1160F57D85B4B35
:101B100003EBCB03D3E9002351EC180BFFF706F8D6
:101B200000284ED00BF1FF3B00230C93109B5B1B56
:101B30005A1E45BFC3F101030593002300230692FB
:101B400054BF05930693BBF1000F3CDB069BCDF819
:101B50002CB05B44069300230893079B092B68D89D
:101B6000052BC4BF043B0793079BA3F10203CCBF23
:101B700000250125032B00F28580DFE803F02E3BD2
:101B80003958DDE910531D4405F23243202BC1BF03
:101B9000C3F1400308FA03F805F2124326FA03F3EF
:101BA000D6BFC3F1200348EA030006FA03F0FEF7AC
:101BB000D1FC0122A1F1F873013D0E926FE70123E0
:101BC000B3E70C90B2E7059BA3EB0B030593CBF1B6
:101BD0000003089300230B93BFE7002309930A9B9C
:101BE000002B52DC0123019304931A460A920BE066
:101BF0000123F3E7002309930A9B5B44019301331C
:101C0000012B0493B8BF0123E0690021042202F1F3
:101C100014069E423DD94160204600F09FFD009091
:101C2000002839D1164B024640F2AF11BDE6012320
:101C3000E1E701250023079309954FF0FF33019356
:101C4000049300221223D1E761436F63A787D23F39
:101C5000B3C8608B288AC63FFB799F501344D33F9B
:101C600011520008285200080000F07F0D520008B1
:101C700004520008E15100080000F83F1853000822
:101C80008052000801230993D7E70A9B019304932C
:101C9000BAE701315200BAE7E369009A1A60049B7F
:101CA0000E2B00F2A880002D00F0A580BBF1000FE4
:101CB00038DDC04B0BF00F0203EBC2031BF4807F37
:101CC000D3E900674FEA2B1819D0BB4B51EC180B26
:101CD000D3E90823FEF7E2FDCDE9020108F00F0881
:101CE0000325DFF8D492B8F1000F0AD1DDE9020133
:101CF00032463B46FEF7D2FDCDE902012BE002253C
:101D0000EFE718F0010F08D030463946D9E9002333
:101D1000FEF79AFC013506460F464FEA680809F1BE
:101D20000809E0E700F09F80CBF10006A14BA24F2D
:101D300006F00F0203EBC203D3E9002351EC180BAA
:101D4000FEF782FCCDE90201361100230225002EA8
:101D50007ED1002BD0D10C9BDDE90289002B00F055
:101D60008480964B002240464946FEF7DFFE00285D
:101D70007BD0049B002B78D0019B002B39DD904B4E
:101D8000002240464946FEF75FFCCDE90201019E74
:101D90000BF1FF370135DDE902892846FEF7EAFB42
:101DA00042464B46FEF750FC864B0022FEF796FA61
:101DB000A1F15073CDE902010393002E58D1824B5B
:101DC000002240464946FEF787FADDE902238046B5
:101DD0008946FEF7C9FE002840F09682DDE902211F
:101DE000404601F100434946FEF7A0FE002840F0BE
:101DF00089828DED028B119B002BC0F24E81BBF1CD
:101E00000E0F00F34A816B4B03EBCB03D3E9008940
:101E10000A9B002B80F2DC80049B002B00F3D8800F
:101E200040F06F82684B002240464946FEF70CFCAA
:101E3000DDE90223FEF78EFE049E3746002840F0BF
:101E40004582009D312305F8013B0BF1010B41E276
:101E5000F20705D5D7E90023FEF7F6FB013501238C
:101E60007610083773E7022575E7049E5F4692E710
:101E70000099504B9DED027B314402910999B0EEDF
:101E8000479AF0EE679A03EBC60353E90223002951
:101E900044D04E490020FEF701FD53EC192BFEF70C
:101EA0001BFA009D41EC190B49464046FEF77CFEAB
:101EB0000646FEF75FFB02460B4640464946FEF7E4
:101EC0000BFA303605F8016B53EC192B8046894626
:101ED000FEF72CFE002864D142464B4637490020CD
:101EE000FEF7FAF953EC192BFEF720FE002840F01C
:101EF000B680029B9D423FF47CAF314B51EC190BF5
:101F00000022FEF7A1FB2E4B41EC190B00224046AC
:101F10004946FEF799FB80468946C5E751EC170B09
:101F2000FEF792FB029B009D0F9341EC190B494673
:101F30004046FEF739FE0646FEF71CFB30360246E9
:101F40000B4640464946FEF7C7F905F8016B029B70
:101F50009D42804689464FF0000224D11B4B51EC34
:101F6000190BFEF7BBF902460B4640464946FEF701
:101F7000FBFD002873D153EC192B14490020FEF708
:101F8000ABF902460B4640464946FEF7CFFD002816
:101F90003FF42FAF0F9D6B1E0F9315F8013C302BB4
:101FA000F8D0BB464AE0064BFEF74EFB804689461A
:101FB000BDE700BF18530008F05200080000F03FD2
:101FC0000000244000001C40000014400000E03FDE
:101FD000DDE90267009D42464B4630463946FEF732
:101FE0005DFCFEF7E1FD0190FEF7C4FA42464B4668
:101FF000FEF72AFB02460B4630463946FEF76CF9DF
:10200000019E049F303605F8016B009EAE1BB7425F
:1020100002460B4634D1FEF761F942464B4606466E
:102020000F46FEF7A1FDC8B942464B463046394639
:10203000FEF772FD10B1019BDB070FD4514620461D
:1020400000F0CCFB00230D9A2B700BF10103136001
:10205000219B002B3FF4E2AC1D60DFE45F462B4682
:102060001D4613F8012D392A06D1009A9A42F7D15C
:102070000099302201370A701A7801321A7090E7FD
:10208000A34B0022FEF7E0FA0022002306460F468B
:10209000FEF742FD00289ED0D0E7099A002A00F002
:1020A000CA80079A012A00F3AD800E9A002A00F038
:1020B000A58003F23343089E059D059A1A440592B4
:1020C000069A01211A442046069200F03DFC07467C
:1020D00065B1069B002B09DDAB42059AA8BF2B46D4
:1020E000D21A0592069AED1AD31A0693089BF3B1F9
:1020F000099B002B00F0A380002E10DD39463246EC
:10210000204600F0E1FC524601460746204600F01A
:1021100031FC51468046204600F060FBC246089BD9
:102120009A1B04D05146204600F0CEFC8246012185
:10213000204600F009FC0B9B002B064640F38180F3
:102140001A460146204600F0BFFC079B012B0646BD
:102150007ADD4FF00008336906EB8303186900F05D
:10216000A5FBC0F12000069B184410F01F0000F0F2
:102170009480C0F12003042B40F38580059BC0F1BF
:102180001C0003440593069B034405440693059BEA
:10219000002B05DD51461A46204600F0EFFC824632
:1021A000069B002B05DD31461A46204600F0E6FC72
:1021B00006460C9B002B72D03146504600F04AFD7B
:1021C00000286CDA002351460A22204600F028FB42
:1021D000099B0BF1FF3B8246002B00F0B0810023EE
:1021E00039460A22204600F01BFB019B002B0746C4
:1021F00000F39680079B022B59DC91E0109BC3F102
:10220000360358E7049B5E1E089BB342BFBF089B82
:102210000B9A0896F31AB4BFD2189E1B049BBCBF3E
:102220000B920026002BB7BFDDE90423DDE904355E
:102230009D1A002341E7089E059D099F48E7089ADB
:1022400070E7079B012B19DC029BBBB9039BC3F30F
:1022500013039BB9039B23F000431B0D1B0583B1A4
:10226000059B01330593069B013306934FF001084C
:102270000B9B002B7FF46FAF012074E74FF0000839
:10228000F6E79846F4E782D0059A1C331A44059283
:10229000069A1A441D44069279E70346F4E7049B24
:1022A000002B37DC079B022B34DD049B0193019B41
:1022B00063B931460522204600F0B2FA01460646CF
:1022C000504600F0C7FC00283FF7BBAD0A9B009DBD
:1022D0006FEA030B4FF000083146204600F07EFA0B
:1022E000002F3FF4ABAEB8F1000F05D0B84503D0D6
:1022F0004146204600F072FA3946204600F06EFA58
:102300009CE600263746E1E7BB46374699E500BF25
:1023100000002440099B002B00F0C880049B01931F
:10232000002D05DD39462A46204600F027FC0746E9
:10233000B8F1000F5BD07968204600F00FFA05462F
:1023400028B9834B024640F2EF21FFF72EBB3A69D2
:102350000232920007F10C010C3000F039FE01222C
:102360002946204600F00AFC009B01330493DDE976
:10237000002313440893029B03F00103B84606931D
:102380000746049B3146013B50460193FFF769FA2B
:102390004146029000F13009504600F05BFC3A469D
:1023A00005903146204600F071FCC268054602BB2C
:1023B0000146504600F04EFC02462946204609924E
:1023C00000F00CFA079B099A049D43EA0201069B60
:1023D000194310D1B9F1390F29D0059B002B02DD2B
:1023E000029B03F13109019B83F8009074E73846A2
:1023F000BAE70122E1E7059B002B04DB07990B43B9
:1024000006990B4320D1002AEDDD514601222046DA
:1024100000F0B4FB3146824600F01CFC002803DCCF
:10242000E1D119F0010FDED0B9F1390FD8D1019AFD
:10243000392313702B461D46013B15F8012C392A10
:102440006CD001321A7047E7002A07DDB9F1390F65
:10245000EDD0019A09F1010313703DE7049B089A3E
:1024600003F8019C934243D0514600230A222046A0
:1024700000F0D6F9B84582464FF000034FF00A024B
:102480004146204607D100F0CBF980460746049B21
:102490000133049375E700F0C3F939468046002301
:1024A0000A22204600F0BCF90746F0E7049B01939E
:1024B000009D31465046FFF7D4F900F13009009BEA
:1024C00005F8019BEA1A019B934207DD5146002360
:1024D0000A22204600F0A4F98246EAE7019B002B7D
:1024E000C8BF1D46009BD8BF01251D444FF0000802
:1024F00051460122204600F041FB3146824600F061
:10250000A9FB002896DC02D119F0010F92D12B46CD
:102510001D4613F8012D302AFAD0DDE6009A9A42C2
:1025200089D10BF1010B312396E70A4BFFF799BADA
:10253000219B002B7FF46DAA074BFFF792BA019BFA
:10254000002BB5DC079B022B3FF7B1AEB0E700BF15
:1025500080520008E05100080452000837B50029F5
:1025600044D051F8043C0190002BA1F10404B8BF01
:10257000E41800F0E7F81E4A0198136833B9636065
:10258000146003B0BDE8304000F0E2B8A34208D9BF
:10259000256861198B4201BF19685B684919216080
:1025A000EDE71A465B680BB1A342FAD911685518DA
:1025B000A5420BD1246821445418A3421160E0D1F4
:1025C0001C685B6853600C441460DAE702D90C2382
:1025D0000360D6E7256861198B4204BF19685B6800
:1025E000636004BF491921605460CAE703B030BD7D
:1025F0004C030020024B0146186800F023B800BFCE
:102600005800002070B50E4E0C463168054611B9D1
:1026100000F0CEFC30602146284600F0C9FC431C87
:102620000AD0C41C24F00304A04207D0211A284673
:1026300000F0BEFC013001D14FF0FF34204670BDE8
:10264000500300202DE9F843CD1C25F00305083583
:102650000C2D38BF0C25002D074601DBA94205D9FA
:102660000C233B6000263046BDE8F883DFF8D080BD
:1026700000F068F8D8F800301C465CBB29463846A4
:10268000FFF7C0FF431C044655D1D8F8004026464A
:10269000002E45D1002C48D023683146384604EB43
:1026A000030900F085FC81453FD121686D1A294658
:1026B0003846FFF7A7FF013037D023682B4423604B
:1026C000D8F80030002B38D05A68A2422BD1002213
:1026D0005A600FE02268521B1FD40B2A17D96119C8
:1026E000A342256018BF5960636808BFC8F800108E
:1026F00062514B60384604F10B0600F029F826F0D1
:102700000706231DF21AAED09B1BA350ABE7A342D2
:102710006268DDD1C8F80020ECE723466468ACE7C6
:1027200034467668B4E71346CCE70C233B60384662
:1027300000F00EF897E72560DCE75B60FFDE00BF86
:102740004C0300200148FFF78AB800BF480300206F
:102750000148FFF785B800BF4803002070B5C6697F
:1027600004460D4676B91020FFF744FF0246E061AB
:1027700020B9184B18486B2100F038FCC0E90166FD
:102780000660C660E669F36883B1E369DB6853F805
:102790002500B8B9012101FA05F6721D9200204604
:1027A00000F042FC60B1C0E901560EE02122042194
:1027B000204600F039FCE369F060DB68002BE4D1CF
:1027C000002070BD026843F825200023C0E90333D0
:1027D000F7E700BF115200089152000870B5C669B2
:1027E00005460C4676B91020FFF704FF0246E86163
:1027F00020B9094B09488F2100F0F8FBC0E90166B8
:102800000660C6603CB1EB696268DB6853F8221071
:10281000216043F8224070BD115200089152000817
:102820002DE9F0410D6907460C461E4601F1140CD6
:102830000020DCF8003099B202FB01611E0C0B0C89
:1028400002FB063389B2013001EB034185424CF8AB
:10285000041B4FEA1346ECDC0EB3A368AB4219DC51
:10286000616838460131FFF779FF804628B9024692
:102870000C4B0D48BA2100F0B9FB2269023204F179
:102880000C0192000C3000F0A3FB21463846FFF704
:10289000A5FF444604EB850301355E6125612046B2
:1028A000BDE8F0818052000891520008030C1B041F
:1028B000D3B90004102310F07F4F04BF0002083387
:1028C00010F0704F04BF0001043310F0404F04BFFC
:1028D00080000233002805DB10F0804F03F1010374
:1028E00008BF2023184670470023E4E7036813F06D
:1028F00007020CD0D90722D49A0749BF5B089B086E
:10290000036001225CBF036002221046704799B247
:1029100009B91B0C1022D9B209B908321B0A1907D0
:1029200004BF1B090432990704BF9B080232D90770
:1029300003D45B0802F1010203D00360E5E7002243
:10294000E3E72022E1E7000010B50C460121FFF784
:1029500005FF024628B9054B054840F2451100F035
:1029600045FB01234461036110BD00BF8052000894
:10297000915200082DE9F04F91460A69D9F81030BC
:102980009A42B8BF0B460C46BCBF4C4699462769D5
:10299000D9F810A0A368616807EB0A06B34285B0B6
:1029A000B8BF0131FFF7DAFE30B90246444B454863
:1029B0004FF4B17100F01AFB00F1140505EB860825
:1029C0002B460022434521D304F1140303EB870770
:1029D00009F1140303EB8A0202923A1B153A22F022
:1029E0000302043204F115018F4238BF0422019220
:1029F000029A03939A420CD8002E03DD58F8043D46
:102A0000002B5BD0066105B0BDE8F08F43F8042BC6
:102A1000D8E7B3F800A0BAF1000F24D004F1140EE7
:102A2000A9464FF0000C5EF8042BD9F800101FFAED
:102A300082FB89B20AFB0B114FEA124BD9F8002036
:102A400061444FEA124C0AFB0BC202EB114289B2FD
:102A500041EA0241774549F8041B4FEA124CE2D89B
:102A6000019A45F802C0039AB2F802900433B9F112
:102A7000000F21D0296804F1140CAE464FF0000A73
:102A8000BCF800B0BEF8022009FB0B22524489B208
:102A900041EA02414EF8041B5CF8041B4FEA114A5C
:102AA000BEF8001009FB0A1101EB124167454FEA1D
:102AB000114AE5D8019AA950043599E7013E9BE7F0
:102AC00080520008915200082DE9F843154612F093
:102AD000030206460F4607D0254C013A002354F85E
:102AE0002220FFF79DFE0746AD103DD0F4697CB96A
:102AF0001020FFF77FFD0246F06128B91D4B1E48EC
:102B000040F2B31100F072FAC0E901440460C460FD
:102B1000D6F81C80D8F808404CB940F271213046F4
:102B2000FFF712FF0023C8F80800044603604FF0C7
:102B30000009EB070AD5394622463046FFF71AFF4F
:102B4000394680463046FFF749FE47466D100BD0A8
:102B5000206838B9224621463046FFF70BFF206037
:102B6000C0F800900446E4E73846BDE8F88300BFAB
:102B7000E053000811520008915200082DE9F04777
:102B80000C464968236903EB6218A368074691461F
:102B90004FEA621A08F10106B3420BDB3846FFF731
:102BA000DDFD054648B90246284B29484FF4EF7130
:102BB00000F01CFA01315B00EEE7002300F1140184
:102BC00000F110021846534533DB20692AEAEA7AFD
:102BD00004F1140319F01F0901EB8A0103EB800CC7
:102BE0002BD0C9F1200E8A460022186800FA09F09D
:102BF00010434AF8040B53F8042B9C4522FA0EF2BA
:102C0000F3D8ACEB0403153B23F00303043304F1C6
:102C10001500844538BF0423CA500AB108F10206E2
:102C2000013E38462E612146FFF7D8FD2846BDE813
:102C3000F08742F8040F0133C5E7043953F8042B39
:102C400041F8042F9C45F9D8EAE700BF80520008FC
:102C50009152000830B502690C69121B0ED100F1C7
:102C60001403143103EB840001EB840150F8045D7C
:102C700051F8044DA54203D005D30122104630BDC2
:102C80008342F3D3FAE74FF0FF32F7E72DE9F84F2D
:102C90000C460646114620469046FFF7DBFF051E10
:102CA00010D129463046FFF759FD30B93A4B02465C
:102CB00040F23721394800F099F90123C0E9043581
:102CC000BDE8F88FA4BF4346A0463046D8F80410AC
:102CD000A6BF1C4600250125FFF740FD20B92E4B5D
:102CE000024640F24521E5E7D8F810702669C56034
:102CF00004F1140908F1140500F1140E05EB870C1A
:102D000009EB860608F11002F246002159F8043B4F
:102D100052F804BF11FA8BF899B21B0CA8EB01080A
:102D2000C3EB1B4303EB28431FFA88F819144E45E5
:102D300048EA03434AF8043BE8D8331B153B23F029
:102D4000030304331534A64238BF04231D447344DF
:102D50009E462E4666450ED30CF10302521B22F00E
:102D60000302033DAC4538BF0022134453F8042D41
:102D70007AB10761A4E756F8048B11FA88F21414AB
:102D800004EB184492B242EA04424EF8042B211498
:102D9000E0E7013FEAE700BF8052000891520008D7
:102DA0002DE9F7430F46012159EC108B1646FFF72A
:102DB000D5FC044630B90246244B254840F20F3179
:102DC00000F014F9C9F30A55C9F313032DBB01939D
:102DD000B8F1000326D068460093FFF787FDDDE9D0
:102DE0000012E8B1C0F1200302FA03F30B43C24022
:102DF00063610192019BA361002B14BF0222012297
:102E00002261BDB1A5F2334505443D60C0F13500F6
:102E10003060204603B0BDE8F08343F48013D6E76A
:102E20006161E7E701A8FFF761FD019B6361203065
:102E30000122E5E704EB8203A0F232403860186912
:102E4000FFF734FDC0EB4210E2E700BF80520008FC
:102E5000915200088A892DE9F041054610070C4679
:102E600058D44B68002B05DC0B6C002B02DC0020D7
:102E7000BDE8F081E66A002EF9D0002312F48052FA
:102E80002F68216A2B6032D0606DA3895A0705D55F
:102E90006368C01A636B0BB1236CC01A002302462F
:102EA000E66A216A2846B047431CA38906D12968EF
:102EB0001D292BD8294A0A41D60727D4002262604F
:102EC000D9042269226004D5421C01D12B6803B9C0
:102ED0006065616B2F600029C9D004F144039942F9
:102EE00002D02846FFF73AFB00206063C0E70123C9
:102EF0002846B047411CC8D12B68002BC5D01D2BDC
:102F000001D0162B01D12F60B1E7A38943F0400314
:102F1000A381ADE70F69002FA9D093070E6808BF02
:102F20004B690F6018BF0023A6EB07088B60B8F150
:102F3000000F9CDD216AA66A43463A462846B04700
:102F4000002806DCA38943F04003A3814FF0FF3043
:102F50008EE70744A8EB0008E9E700BFFEFFBFDFEC
:102F600038B50B6905460C4613B90025284638BD0F
:102F700018B1036A0BB9FEF781FBB4F90C30002BD2
:102F8000F3D0626ED00704D4990502D4A06DFEF789
:102F900066FC28462146FFF75DFF636EDA070546AB
:102FA000E4D4A3899B05E1D4A06DFEF759FCDDE7CD
:102FB00038B5064D0023044608462B6000F0BAFFE2
:102FC000431C02D12B6803B1236038BD44030020A9
:102FD0000A44914200F1FF3300D1704710B511F857
:102FE000014B03F8014F9142F9D110BD1FB51446B2
:102FF0001A46094B1B680546D8684CB1074B00912F
:10300000CDE9013406492B4600F044F800F054F8AD
:10301000044B1C46F3E700BF58000020F65300089D
:10302000035400083154000837B5A1FB02244CB901
:1030300011460192FFF706FB019A054630B9284672
:1030400003B030BD0C2202600025F8E72146FEF7F0
:103050008EFBF4E782B001B901A942B14BB11378FC
:103060000B601278101E18BF012002B07047104686
:10307000FBE76FF00100F8E749B1FF2A85BF8A231B
:1030800003600A704FF0FF3098BF01207047084678
:10309000704700000EB403B5014603AB054853F872
:1030A000042B0068019300F037F802B05DF804EBE0
:1030B00003B070475800002008B5062000F004FA5D
:1030C000012000F006FF9368013B002B10B49360D1
:1030D00008DA9469A34201DB0A2903D15DF8044BA5
:1030E00000F034B91368581C1060197008465DF878
:1030F000044B7047F8B506460F461446D518AC4247
:1031000001D1002007E014F8011B3A463046FFF7D2
:10311000DAFF431CF3D1F8BD2DE9F04F0D469DB009
:1031200014469846064618B1036A0BB9FEF7A6FA8C
:103130006B6ED90705D4AB899A0502D4A86DFEF74A
:103140008EFBAB891B0701D52B699BB929463046FD
:1031500000F03AF970B16B6EDC0704D54FF0FF3028
:103160001DB0BDE8F08FAB899805F7D4A86DFEF7C8
:1031700077FBF3E70023099320238DF82930CDF85E
:103180000C803023DFF8B0818DF82A304FF0010930
:1031900023469A4613F8012B0AB1252AF9D1BAEB36
:1031A000040B0BD05B46224629463046FFF7A2FFB0
:1031B000013000F0A980099A5A4409929AF8003027
:1031C000002B00F0A18000234FF0FF32CDE9052352
:1031D0000AF1010A049307938DF853301A93544669
:1031E000052214F8011B5448FDF71AF8049AD8B9BF
:1031F000D10644BF20238DF85330130744BF2B233F
:103200008DF853309AF800302A2B15D0079A54467F
:1032100000204FF00A0C214611F8013B303B092BEE
:103220004DD9B0B1079214E0A0EB080309FA03F3FB
:1032300013430493A246D2E7039B191D1B68039115
:10324000002BBBBF5B4242F0020207930793B8BF5B
:10325000049223782E2B0CD163782A2B34D1039B34
:103260001A1D1B680392002BB8BF4FF0FF330234C6
:103270000593DFF8D4A0217803225046FCF7D0FF55
:1032800038B1049BA0EB0A00402282401343013472
:10329000049314F8011B29488DF828100622FCF726
:1032A000BFFF00283FD0264B1BBB039B073323F0F7
:1032B000070308330393099B3B44099368E70CFB1E
:1032C00002320C460120A6E700230134059319467B
:1032D0004FF00A0C204610F8012B303A092A03D986
:1032E000002BC6D00591C4E70CFB01210446012345
:1032F000F0E703AB00932A46124B04A93046FDF7D2
:103300006BFD0746781CD6D16B6ED90705D4AB8907
:103310009A0502D4A86DFEF7A3FAAB895B063FF5C8
:103320001DAF09981CE703AB00932A46054B04A97F
:103330003046FDF7F5FFE4E7335500083D5500083A
:10334000D90D0008F530000839550008F8B50E46CB
:103350001446054618B1036A0BB9FEF78FF9A36945
:10336000A360A3891A0725D523691BB323682269A3
:10337000981A6369F6B28342374604DC2146284630
:10338000FFF7EEFDE0B9A368013BA36023685A1C78
:1033900022601E706269431C9A4204D0A389DB0735
:1033A00006D50A2E04D121462846FFF7D9FD38B9A3
:1033B0003846F8BD2146284600F006F80028D5D04A
:1033C0004FF0FF37F4E7000038B52A4B0546186880
:1033D0000C4618B1036A0BB9FEF750F9A389B4F98A
:1033E0000C20180722D4D90607D409232B6042F0F9
:1033F0004003A3814FF0FF3034E0580712D5616BD2
:1034000041B104F14403994202D02846FFF7A6F8DF
:1034100000236363A38923F02403A3810023636053
:1034200023692360A38943F00803A38123694BB96F
:10343000A38903F42073B3F5007F03D02146284607
:1034400000F084F8A089B4F90C2010F001030AD030
:103450000023A36063695B42A361236943B910F051
:103460008000C4D138BD810758BF6369A360F4E709
:103470000020F7E7580000201F2938B504460D4604
:1034800004D9162303604FF0FF3038BDC26B12B170
:1034900052F821304BB9204600F030F82A46014658
:1034A0002046BDE8384000F017B8012B0AD0591C5F
:1034B00003D1162303600120E7E7002442F82540EA
:1034C000284698470020E0E7024B01461868FFF7BE
:1034D000D3BF00BF5800002038B5074D0023044675
:1034E000084611462B6000F0ECFC431C02D12B680F
:1034F00003B1236038BD00BF4403002000F0DFBCEF
:1035000070B50C46B1F90E10002996B015461E464E
:103510000DDAA38913F0800F4FF000010CBF4FF4B8
:1035200080634023002031602B6016B070BD6A4676
:1035300000F048F80028ECDB019901F47041A1F596
:103540000053594259414FF48063EBE78B8973B5BF
:103550009D0706460C4607D504F147032360236107
:103560000123636102B070BD01AB6A46FFF7C8FF7B
:10357000009905463046FFF765F848B9B4F90C30B4
:103580009A05EFD423F0030343F00203A381E3E79A
:10359000A389206043F08003A381009B6361019BAA
:1035A00020615BB1B4F90E10304600F01DF828B16F
:1035B000A38923F0030343F00103A381A3891D43DF
:1035C000A581CFE738B5074D0023044608461146CC
:1035D0002B6000F0A5FC431C02D12B6803B12360D3
:1035E00038BD00BF4403002038B5064D0023044613
:1035F00008462B6000F099FC431C02D12B6803B1F4
:10360000236038BD440300204FF0804300225A62FB
:103610004FF080435A6A642300FB03F39A42F7D3C6
:103620007047000008B5204A136843F4E06343F094
:10363000030313601D4B1E4A5A601A6842F08072E1
:103640001A601A4B1B6813F0007FFAD0174B9A6868
:1036500022F003029A609A6842F002029A60134BC9
:103660009B6803F00C03082BF9D100F091FC00F0EB
:1036700085FC0E4B1A6B42F001021A631A6B42F082
:1036800002021A631A6B42F004021A635A6C42F087
:1036900000725A645A6C42F001025A641A6C42F089
:1036A00001021A6408BD00BF003C0240003802401D
:1036B00008190004364B1A6842F400221A60354A91
:1036C000116841F400611160116841F4002111603A
:1036D000196841F400111960596A41F0600159629A
:1036E000116A41F440111162516A41F07001516256
:1036F0005A6A42F420625A62274A116821F4403122
:1037000041F400311160116821F4402141F400219D
:103710001160116821F4401141F400111160196821
:1037200021F0406141F000611960196821F04051B9
:1037300041F000511960196821F0404141F0004109
:103740001960196821F0407141F000711960516AE7
:1037500041F001015162516A41F010015162516A18
:1037600041F4807151625A6A42F480125A625A6A74
:1037700042F080725A625A6A42F080525A625A6A21
:1037800042F480325A629A6842F400129A6070479A
:10379000000402400008024000000240214B5A6C25
:1037A00042F00A025A645A6C42F480425A645A6CDB
:1037B00042F400525A6400BF00BF00BF5A6C42F48A
:1037C00080525A6400BF00BF00BF1A6842F0600216
:1037D0001A601A6842F080021A604FF4FA62DA62E4
:1037E0009A6942F060029A619A6942F4C0429A6111
:1037F000DA6942F06002DA611A6A42F005021A627E
:103800001A6A42F050021A621A6A42F4A0621A62FC
:10381000DA6842F00102DA60034B4FF000721A607E
:10382000704700BF0000014000E100E04FF080431E
:1038300000229A624FF6FF72DA621A6842F00102C1
:103840001A607047114B4FF47A725A639A63DA63C5
:1038500000225A621A6842F001021A605A6C42F45D
:1038600000425A640A4AD2F8803043F40033C2F866
:103870008030084B1A6842F400321A60D3F8802076
:1038800042F40032C3F88020704700BF00000140BE
:103890000065014000660140374B1A6842F48022FF
:1038A0001A601A6A42F004021A621A6C42F00402A8
:1038B0001A641A6E42F004021A663049D1F8802068
:1038C00042F08072C1F880202D4A106840F00070EC
:1038D0001060D2F8800040F04070C2F88000D1F84B
:1038E000940040F0C040C1F89400506940F0C040DE
:1038F0005061D2F8940040F0C040C2F89400D1F872
:10390000940040F0C770C1F89400506940F0C7704F
:103910005061D2F8940040F0C770C2F89400586A21
:1039200040F040005862586C40F040005864586EB7
:1039300040F040005866186A40F080001862186C29
:1039400040F080001864186E40F080001866186817
:1039500040F000401860D1F8803043F00103C1F816
:103960008030136843F001031360D2F8803043F0D5
:103970000103C2F8803070470064014000650140D7
:10398000006601400000000070B52DED068B10EEC2
:10399000106AB0EE419AB0EE618A05460C4670EEB0
:1039A000A00A70EEC10A70EEE17A17EE900AFCF7F9
:1039B000F3FD23A3D3E90023FCF746FEFDF71CF932
:1039C00008EE900A79EE487A17EE900AFCF7E4FDCB
:1039D0001DA3D3E90023FCF737FEFDF70DF908EE30
:1039E000100A3046FCF7D8FD41EC1A0B41EC100BE5
:1039F00000F04EFB51EC100BFDF7FEF809EE100A3B
:103A0000B0EE4A0AF0EE6A0A00F096FB51EC100B99
:103A1000FDF7F2F807EE900A28EE897A68EE276A39
:103A200037EE267A85ED007A28EE098A68EEA78AB5
:103A300038EE688A84ED008A0020BDEC068B70BDEC
:103A40003F2C0C70BD20DA3FCC3B7F669EA0E63F4A
:103A50002DE9F8432DED068BB0EE609AF0EE418A29
:103A600006460C46154610EE100AFCF795FD41EC93
:103A70001A0B41EC100B00F00BFB51EC100BFDF797
:103A8000BBF808EE100AB0EE4A0AF0EE6A0A00F03F
:103A900053FB51EC100BFDF7AFF807EE900A68EE00
:103AA000096A27EEA87A67EE897A28EE288A37EE27
:103AB000888A76EEC77A17EE900AFCF76DFD80468D
:103AC00089461DA3D3E90023FCF7BEFDFDF794F85A
:103AD00030601BA3D3E9002340464946FCF7B4FD00
:103AE000FDF78AF82060FCF757FD8046894618EEFE
:103AF000100AFCF751FD14A3D3E90023FCF7A4FD41
:103B000006460F4602460B4640464946FCF7E4FB94
:103B1000FDF772F828602068FCF73EFD32463B4610
:103B2000FCF7DCFBFDF768F820600020BDEC068B9D
:103B3000BDE8F883AFF300803E2C0C70BD20EA3F57
:103B40003F2C0C70BD20DABFCC3B7F669EA0E63FC9
:103B500008B5FFF767FDFFF7ADFDFFF71FFEFFF7A5
:103B600065FEFFF799FEFFF76DFE6420FFF74CFD41
:103B7000FBE70000164BD3ED006A66EE806A154B3A
:103B8000D3ED007A60EE277A134B93ED007A77EE4F
:103B9000877AC3ED007A114B93ED007AF4EEC77A81
:103BA000F1EE10FA08DD0C4B83ED007A0A4B93ED31
:103BB000000A30EE260A7047B1EE477AF4EEC77A73
:103BC000F1EE10FAF2D5044B83ED007AEEE700BF78
:103BD000DC010020D801002054030020D401002083
:103BE000A54B1B6913F0010F00F03B81A24A13693A
:103BF00023F001031361A14BD3F8883013F0020FB7
:103C000000F02F819E4B9B6813F0020F00F029817A
:103C10009B4BD3F8883013F0020F00F0228170B56F
:103C20002DED028B86B0974B1A68934B5A63964AD8
:103C300012689A63954A1268DA63954B1868FCF724
:103C4000ABFC89A3D3E90023FCF7FEFC88A3D3E9EE
:103C50000023FCF7F9FC04460D468E4E3068FCF755
:103C60009BFC22462B46FCF739FBFCF7C5FF306076
:103C7000FCF792FC7CA3D3E90023FCF76BFF08B1AF
:103C8000002232607D4CD4F89C3023F0FF037C4846
:103C9000C26922F0FF02D0F89C1021F0FF01D4F895
:103CA000805045F40035C4F88050046844F4003472
:103CB0000460D0F8804044F40034C0F880405B4297
:103CC00007EE903AF8EEE77AB5EE007A67EE877A7B
:103CD000DFED710A534201EE103AB8EEC11A21EE3F
:103CE000071A4B4201EE903AF8EEE11A61EE871A9C
:103CF000684C02A901A8C1EEA01A81EE201AC7EEF5
:103D0000A00A94ED000AFFF73FFE644B93ED000A12
:103D1000634BD3ED008ADDED017A78EEE78ADDEDC5
:103D2000027A30EE670AFFF725FFB0EE408AB0EE68
:103D3000680AFFF71FFFF1EE080A05AA04A903A805
:103D400088EE201AC0EE200A94ED000AFFF780FEEC
:103D50009DED037ADFED537AB4EEE77AF1EE10FAD7
:103D600001DDCDED037A9DED037ADFED4F7AB4EE00
:103D7000E77AF1EE10FA01D5CDED037A9DED047AE4
:103D8000DFED487AB4EEE77AF1EE10FA01DDCDED21
:103D9000047A9DED047ADFED447AB4EEE77AF1EE31
:103DA00010FA01D5CDED047A9DED057ADFED3D7A6F
:103DB000B4EEE77AF1EE10FA01DDCDED057A9DED76
:103DC000057ADFED397AB4EEE77AF1EE10FA01D533
:103DD000CDED057AF7EE005ADDED036A76EEA56AC1
:103DE000B6EE006A66EE866ACDED036A9DED047A52
:103DF00037EE257A27EE067A8DED047ADDED057A29
:103E000077EEA57A67EE867ACDED057A9FED275A93
:103E100066EE856ADFED265A66EEA56AB3EE096A9C
:103E2000C6EE864AFCEEE44A164BC3ED004A27EE86
:103E3000057A27EE257AC7EE066AFCEEE66A124B93
:103E4000C3ED006A67EE857A67EEA57A87EE867A1B
:103E5000BCEEC77A0D4B83ED007A06B0BDEC028B49
:103E600070BD7047AFF30080182D4454FB211940FA
:103E7000F168E388B5F8F43E0000014000650140B8
:103E800000660140C8010020CC010020D0010020C4
:103E9000E00100205C030020734C7248E401002024
:103EA000580300203333733F333373BF0000FA43AA
:103EB0000000C842FEE7FEE7FEE7FEE7FEE701205E
:103EC000704708B500F0DCF8162303604FF0FF30B0
:103ED00008BD08B54FF0FF31FFF7F3FFFEE770B5FF
:103EE0000C461646002506E0AFF30080214601F897
:103EF000010B01350C46B542F6DB304670BD70B59E
:103F00000C461646002504E014F8010BAFF30080C0
:103F10000135B542F8DB304670BD4FF0FF307047D9
:103F20004FF400534B600020704701207047002081
:103F30007047000010B503460C4A0D490D48006853
:103F400040B10C4800680344521A934206D8094A0B
:103F5000136010BD0748084C0460F2E700F090F8C9
:103F60000C2303604FF0FF30F3E700BF0000052093
:103F7000000400006003002068030020034AD2F818
:103F8000883043F47003C2F88830704700ED00E0D9
:103F9000224B9B6803F00C03042B14D0082B16D083
:103FA0001BB11F4B1F4A1A6002E01D4B1D4A1A60CD
:103FB0001A4B9B68C3F303131B4AD15C184A13685E
:103FC000CB4013607047164B164A1A60F0E7134B4C
:103FD00059685A6802F03F0211F4800F13D0114B58
:103FE000B3FBF2F30D4A5268C2F3881202FB03F3EB
:103FF0000A4A5268C2F3014201325200B3FBF2F3A3
:10400000074A1360D4E7074BB3FBF2F3034A526845
:10401000C2F3881202FB03F3EAE700BF0038024054
:10402000E80100200024F40044550008DFF834D0F3
:10403000FFF7A4FF0C480D490D4A002302E0D458B5
:10404000C4500433C4188C42F9D30A4A0A4C0023E2
:1040500001E013600432A242FBD3FDF7DBFBFFF764
:1040600077FD70470000052000000020EC010020D3
:1040700038570008EC01002064030020FEE7000030
:10408000014B1868704700BF580000200000000076
:104090001FB553EC102B264823F00041814206DC6B
:1040A0009FED211B05B05DF804EB00F09DB82148A1
:1040B000814209DD10EE100A1946FCF70DF941ECBA
:1040C000100B05B05DF804FB684600F015FA00F02F
:1040D000030001280BD0022816D0E0B99DED021B89
:1040E0009DED000B00F080F851EC100BE7E79DED23
:1040F000021B9DED000B00F03FF953EC102B10EE6E
:10410000100A03F10041DAE79DED021B9DED000B63
:1041100000F06AF8F1E79DED021B9DED000B012018
:1041200000F02AF9E0E700BF0000000000000000F6
:10413000FB21E93FFFFFEF7F1FB553EC102B284811
:1041400023F00041814207DC9FED231B002005B0D6
:104150005DF804EB00F010B92248814209DD10EE51
:10416000100A1946FCF7B8F841EC100B05B05DF8E1
:1041700004FB684600F0C0F900F0030001280CD0F1
:10418000022811D0F0B99DED021B9DED000B01201E
:1041900000F0F2F851EC100BE6E79DED021B9DEDEF
:1041A000000B00F021F8F5E79DED021B9DED000BE3
:1041B000012000F0E1F853EC102B10EE100A03F18F
:1041C0000041D1E79DED021B9DED000B00F00CF8C6
:1041D000F1E700BFAFF30080000000000000000026
:1041E000FB21E93FFFFFEF7F2DE9F74F57EC106B05
:1041F00027F00048B8F1795F8DED001B07DA10EE6B
:10420000100A3946FCF7D0FC002800F088803246BE
:104210003B4630463946FCF717FA514B002204461C
:104220000D46FCF711FA40A3D3E9002382468B46E2
:1042300020462946FCF708FA3DA3D3E90023FCF702
:104240004DF822462B46FCF7FFF93BA3D3E90023A8
:10425000FCF742F822462B46FCF7F6F938A3D3E9DF
:104260000023FCF73BF822462B46FCF7EDF936A37A
:10427000D3E90023FCF730F822462B46FCF7E4F99B
:1042800033A3D3E90023FCF729F822462B46FCF799
:10429000DBF922462B46FCF7D7F9DDE9002304467B
:1042A0000D4630463946FCF7CFF90B460246294603
:1042B0002046FCF711F82B4B984506460F4610DCBC
:1042C00002460B4650465946FCF706F80B4626496F
:1042D00002460020FCF700F841EC100B03B0BDE8EB
:1042E000F08F224B20499845CCBF214DA8F50015F1
:1042F000002422462B460020FBF7EEFF2246804694
:1043000089462B4650465946FBF7E6FF32463B4668
:10431000FBF7E2FF02460B4640464946DAE79FEDCF
:104320000E0BDBE7AFF30080D43888BEE9FAA8BDF6
:10433000C4B1B4BD9EEE213EAD529C804F7E923EF4
:104340009015CB19A001FA3E7751C1166CC1563FAA
:104350004C5555555555A53F000000000000F03F55
:104360000000E03F3233D33F0000F03F0000E93F60
:104370000000D23F000000002DE9F04F2DED048B2E
:10438000B0EE418AF0EE618A55EC104B83B025F017
:104390000043B3F1795F019006DA10EE100A294666
:1043A000FCF702FC002851D022462B462046294625
:1043B000FCF74AF982468B4602460B4620462946C0
:1043C000FCF742F941A3D3E90023804689465046D1
:1043D0005946FCF739F93FA3D3E90023FBF77CFFEB
:1043E00052465B46FCF730F93CA3D3E90023FBF7C8
:1043F00075FF52465B46FCF727F93AA3D3E9002341
:10440000FBF76AFF52465B46FCF71EF937A3D3E978
:104410000023FBF763FF019B06460F46EBB90246FC
:104420000B4650465946FCF70FF925A3D3E9002364
:10443000FBF752FF42464B46FCF706F902460B4695
:1044400020462946FBF74AFF04460D4645EC104B33
:1044500003B0BDEC048BBDE8F08F1B4B51EC180B87
:104460000022FCF7F1F8324641EC190B3B4640467E
:104470004946FCF7E9F802460B4651EC190BFBF7ED
:104480002BFF52465B46FCF7DFF853EC182BFBF78B
:1044900023FF0BA3D3E9002306460F4640464946B7
:1044A000FCF7D2F802460B4630463946FBF716FFBA
:1044B00002460B4620462946FBF70EFFC4E700BF25
:1044C000495555555555C53F0000E03F7CD5CF5A5D
:1044D0003AD9E53DEB9C2B8AE6E55A3E7DFEB15785
:1044E000E31DC73ED561C119A0012A3FA6F81011EE
:1044F0001111813F000000002DE9F04F2DED028BDE
:1045000055EC104BCA4B8BB025F0004898458246BD
:10451000029508DC0022002380ED000BC0E9022395
:104520004FF0000B28E0C34B984578DC029BC24E4D
:10453000002B10EE100AB0A3D3E90023294639DD81
:10454000FBF7CAFEB04504460D461BD0ACA3D3E929
:104550000023FBF7C1FE02460B46CAE900232046B2
:104560002946FBF7B9FEA6A3D3E90023FBF7B4FE67
:10457000CAE902014FF0010B58460BB0BDEC028BAB
:10458000BDE8F08FA0A3D3E90023FBF7A5FEA0A30D
:10459000D3E9002304460D46FBF79EFE02460B4678
:1045A000CAE9002320462946FBF796FE98A3D3E9E3
:1045B0000023DBE7FBF792FEB04504460D4616D01C
:1045C0008FA3D3E90023FBF789FE02460B46CAE915
:1045D000002320462946FBF77FFE89A3D3E9002369
:1045E000FBF77CFE4FF0FF3BCAE90201C4E786A35C
:1045F000D3E90023FBF772FE85A3D3E90023044629
:104600000D46FBF76BFE02460B46CAE90023204627
:104610002946FBF761FE7EA3D3E90023E0E7874B41
:10462000984500F3D88000F06DF955EC104B10EE72
:10463000100A79A3D3E900232946FCF705F8804B3B
:104640000022FBF74BFEFCF7AFFA8346FBF792FF25
:1046500002460B4643EC182B67A3D3E90023FBF774
:10466000F3FF02460B4620462946FBF735FE64A3BE
:10467000D3E9002306460F4651EC180BFBF7E4FF85
:10468000BBF11F0F04460D460DDC6E4B0BF1FF32E4
:1046900053F82230434506D022462B463046394651
:1046A000FBF71AFE0EE02B46224630463946FBF752
:1046B00013FE4FEA28530393C1F30A53C3EB185375
:1046C000102B02DCCAE9000139E04FA3D3E9002333
:1046D00051EC180BFBF7B8FF04460D4602460B469B
:1046E00030463946FBF7F8FD02460B4680468946C0
:1046F00030463946FBF7F0FD22462B46FBF7ECFD32
:1047000043A3D3E9002304460D4651EC180BFBF7F5
:104710009BFF22462B46FBF7DFFD02460B46044675
:104720000D4640464946FBF7D7FD039AC1F30A53AD
:10473000D31A312B24DCCAE9000146464F46DAE998
:104740000089304642464B463946FBF7C5FD2B46AD
:104750002246FBF7C1FD029B002BCAE90201BFF60E
:104760000BAF09F10043CAF8043001F10043CAF865
:104770000080CAF80800CAF80C30CBF1000BFBE649
:1047800027A3D3E9002351EC180BFBF75DFF044688
:104790000D4602460B4640464946FBF79DFD024644
:1047A0000B4606460F4640464946FBF795FD224616
:1047B0002B46FBF791FD1CA3D3E9002304460D46CD
:1047C00051EC180BFBF740FF22462B46FBF784FD0C
:1047D00004460D4660E71C4B984537DD10EE102A65
:1047E0002B4620462946FBF777FDCAE90201CAE9B4
:1047F000000195E6AFF3008000004054FB21F93F33
:104800003163621A61B4D03D0000601A61B4D03DDA
:104810007370032E8A19A33B83C8C96D305FE43FD0
:104820000000002E8A19A33BC14920259A837B39B9
:10483000FB21E93F7BD90240FB21F93FFB213941B4
:104840000000E03F54550008FFFFEF7F4FEA285675
:10485000A6F21646A8EB065120460D46FCF7A4F931
:10486000FBF788FE02460B4620462946CDE9042385
:10487000FBF732FD214B0022FBF7E6FE0D46044616
:10488000FCF792F9FBF776FE02460B4620462946D6
:10489000CDE90623FBF720FD184B0022FBF7D4FEE1
:1048A000CDE908010DF1280803270024002578E947
:1048B000020122462B46B946013FFCF72DF900289C
:1048C000F5D10F4B01930223009332464B465146DC
:1048D00004A800F021F8029B002B8346BFF64CAEE3
:1048E000DAE9002101F10043CAE90023DAE90221F3
:1048F00001F10043CAE902233FE700BF0000704115
:10490000D455000851EC100B10EE102A21F0004392
:1049100043EC102B704700002DE9F04F2DED028B7A
:10492000ADF5197D12F1140F06930491C24BA499B1
:10493000099053F821300093069B03F1FF33A8BF81
:10494000D41E0593B2BF0024182394FBF3F46FF038
:10495000170304FB033303EB020A009B059A9FED48
:10496000B28B03EB0208A59BA71A20AE03EB8709C5
:104970000025454513DD069B20AA02EBC3050DF576
:10498000E07B4FF00008009B984531DC9FEDA67B53
:10499000DDF824908DED027B2F4600261BE0EF42D0
:1049A00007D459F82500FBF7E5FDE6E802010135DB
:1049B000DFE751EC180BF8E7D7E90023F9E802012B
:1049C000FBF742FE02460B46DDE90201FBF786FCDF
:1049D000CDE902010136059B9E42A7F10807EBDDF8
:1049E0009DED027B08F10108ABEC027B0835CAE7BC
:1049F000009B0CAA02EB83030B93A59B03EB8403A0
:104A0000009C0A93E300089398AB03EBC40353E9BB
:104A100028670DF1300870AB03EBC405C346A1460F
:104A2000B9F1000FA5F1080577DC47EC106B504693
:104A300000F0C2FA57EC106B00224FF07F5310EEDB
:104A4000100A3946FBF700FE41EC100B00F034FB76
:104A50007A4B51EC100B0022FBF7F6FD02460B4699
:104A600030463946FBF738FC0F460646FCF79CF803
:104A70000290FBF77FFD02460B4630463946FBF7B6
:104A80002BFCBAF1000F06460F466DDD611E0CAB24
:104A9000029D53F82130CAF1180043FA00F2154480
:104AA00082409B1A0CAA029542F82130CAF11702E3
:104AB00043FA02FBBBF1000F65DD029B00220133CC
:104AC000029315466FF07F41944200F39F80BAF144
:104AD000000F07DDBAF1010F00F0C180BAF1020F3B
:104AE00000F0C780BBF1020F4DD132463B4654491E
:104AF0000020FBF7F1FB06460F46002D43D0504641
:104B00009FED4B0B00F058FA3046394653EC102B12
:104B1000FBF7E2FB06460F4635E04A4B00223046E3
:104B20003946FBF791FDFCF73FF8FBF723FD024602
:104B30000B4643EC182B444B0022FBF785FD024645
:104B40000B4630463946FBF7C7FBFCF72DF8D5E995
:104B500000234BF8040B51EC180BFBF7BFFB09F1DA
:104B6000FF3906460F465BE706D1631E0CAA52F8D2
:104B700023304FEAE35B9DE7344B0022FBF7EAFF6B
:104B8000002840D183460022002330463946FBF7F7
:104B9000C3FF002800F0C180651E2B46002200994B
:104BA0008B426DDA002A00F08A800CABAAF1180A59
:104BB00053F82530002B00F0AE8050469FED1C0BC3
:104BC00000F0FAF96B1CDA00059257EC106B70AA32
:104BD000DFF8709002EBC30A2C464FF00008002C5F
:104BE00080F2D4802C46002CC0F20281184B1E4665
:104BF00070AB03EBC4082B1B4FF000094FF0000A09
:104C000000270693E6E04FF0020B56E7D8F8003095
:104C100005BB23B1C3F18073C8F800300123013212
:104C200008F104081D464FE70000000000000000E6
:104C3000000000000000F03F205700080000204066
:104C40000000F03F0000703E000070410000E03FB7
:104C5000E0560008CB1AC8F800302B46DFE7621E8A
:104C60000CAB53F82230C3F316030CA941F82230E1
:104C700038E7621E0CAB53F82230C3F31503F4E798
:104C80000CA951F82310013B0A4388E7013352F87D
:104C9000041D0029FAD0089A02F518726A44983A5D
:104CA0000892069A20A9A218E31804F1010801EB62
:104CB000C2050293029B434504DA1C46A2E60B9A06
:104CC0000123E4E70A9B53F82800FBF753FCE5E8CF
:104CD0000201099BAB461C464FF000090026002745
:104CE000059B994506DD089BE3E8026708F101088A
:104CF0000893DFE77BE90223F4E80201FBF7A4FC59
:104D000002460B4630463946FBF7E8FA09F101093D
:104D100006460F46E4E7013D47E747EC106BCAF152
:104D2000000000F049F957EC106BA04B10EE100A90
:104D300000223946FBF70EFFF8B19D4B00223046AA
:104D40003946FBF781FCFBF72FFF8046FBF712FC8F
:104D5000964B0022FBF778FC0B460246394630465C
:104D6000FBF7BAFAFBF720FF651C0CAB0AF1180A37
:104D700043F8240043F825801FE730463946FBF707
:104D800013FF0CAB254643F8240016E70CAB53F891
:104D90002400FBF7EFFB32463B46FBF755FC42464F
:104DA0006AE902014B4630463946FBF74DFC013CAF
:104DB00006460F4613E7F8E80223F6E80201FBF780
:104DC00043FC02460B4648465146FBF787FA01373B
:104DD00081468A46009B9F4202DC069B9F42EADD99
:104DE000069A48AB03EBC206C6E9009A013CFAE614
:104DF000A49B022B0BDC002B39DC5DD0029B03F063
:104E000007000DF5197DBDEC028BBDE8F08FA49B6A
:104E1000032BF3D1059B009503F518730DEB0304E9
:104E2000A4F5A474A246009B002BAAF1080A69DC31
:104E3000AA46BAF1010FA4F1080400F38380059C8F
:104E400048AB1C4400200021012D00F39A80DDE9CD
:104E50004878DDE94A56BBF1000F40F09880049B8A
:104E6000C3E90078C3E90256C3E90401C6E7059E19
:104E700048AB1E442C4600200021002C33DABBF145
:104E8000000F36D0024601F10043049CC4E9002320
:104E900002460B46DDE94801FBF71EFA4AAE012443
:104EA000A54229DABBF1000F02D001F100431946F7
:104EB000049BC3E90201A1E7059C48AB1C44002008
:104EC0000021002D09DABBF1000F02D001F10043EF
:104ED0001946049BC3E9000190E774E90223FBF73C
:104EE000FDF9013DEDE776E90223FBF7F7F9013C17
:104EF000C3E702460B46C8E7F6E80223FBF7EEF9E4
:104F00000134CDE7DAE90089DAE90267009B013B69
:104F1000009332463B4640464946FBF7DFF9CDE970
:104F2000060102460B4640464946FBF7D5F9324694
:104F30003B46FBF7D3F99DED067BCAE902018AEDFA
:104F4000007B70E7D4E90089D4E902674046324625
:104F50003B464946FBF7C2F9CDE9000102460B4644
:104F600040464946FBF7B8F932463B46FBF7B6F9EF
:104F70009DED007BC4E9020184ED007B0AF1FF3A5C
:104F800057E774E90223FBF7A9F9013D5CE7049BAD
:104F9000049A1F6008F100445C609D6006F10043C4
:104FA000D36001F100431061536127E700007041B5
:104FB0000000703E0000000070B555EC104BC5F3CA
:104FC0000A5106462B4699B925F0004323433FD0AA
:104FD000354B294610EE100A0022FBF735FB334B08
:104FE0009E4204460D4610DA27A3D3E900231FE0B2
:104FF00040F2FF7291420CD110EE102A2046294651
:10500000FBF76CF904460D4622E00B46C1F30A514A
:1050100036394CF2503296420DDD002D1CA1D1E9FB
:10502000000102DA1CA1D1E9000119A3D3E9002390
:10503000FBF70AFBE6E7721840F2FE718A42ECDCED
:10504000002A08DD23F0FF4323F4E00343EA02557E
:1050500045EC104B70BD12F1350F08DA002D0AA196
:10506000D1E90001C0DA0EA1D1E90001BCE723F0CB
:10507000FF43363223F4E00343EA025120460C4B4F
:105080000022D5E7AFF3008059F3F8C21F6EA501E7
:105090009C7500883CE4377E9C7500883CE437FEB4
:1050A00059F3F8C21F6EA58100005043B03CFFFFCA
:1050B0000000903C0000000051EC100BC1F30A53BB
:1050C0002DE9F041A3F2FF36132E10EE105A10EE28
:1050D000108A0C4631DC002E14DA33A3D3E9002306
:1050E000FBF7FCF800220023FBF73EFD38B1002C53
:1050F00053DA24F00044254352D02D4C002521469C
:10510000284624E02B4F374101EA070303431ED012
:1051100025A3D3E90023FBF7E1F800220023FBF7E6
:1051200023FD0028EBD0002CBEBF4FF48013334189
:10513000E41824EA07040025E1E7332E0BDDB6F579
:10514000806F04D110EE102A0B46FBF7C7F841EC34
:10515000100BBDE8F081A3F213434FF0FF37DF409F
:105160003842F4D010A3D3E90023FBF7B7F80022AC
:105170000023FBF7F9FC0028C1D0002C0ADA142E1A
:1051800001D1013406E0C6F134060123B3401D44C9
:10519000A845F6D825EA0705B1E700252C46AEE775
:1051A0004FF00044ABE700BF9C7500883CE4377EBD
:1051B0000000F0BFFFFF0F00F8B500BFF8BC08BC4F
:1051C0009E467047F8B500BFF8BC08BC9E467047C5
:1051D000494E4600696E66004E414E006E616E009B
:1051E0003000303132333435363738394142434478
:1051F00045460030313233343536373839616263F1
:1052000064656600496E66696E697479004E614E28
:10521000005245454E54206D616C6C6F6320737570
:1052200063636565646564002F6275696C642F67EC
:105230006E752D746F6F6C732D666F722D73746D38
:1052400033325F31312E332E72656C312E32303273
:1052500033303931322D313630302F7372632F6E47
:1052600065776C69622F6E65776C69622F6C696215
:10527000632F7374646C69622F64746F612E6300B2
:1052800042616C6C6F63207375636365656465640C
:10529000002F6275696C642F676E752D746F6F6C6B
:1052A000732D666F722D73746D33325F31312E330F
:1052B0002E72656C312E32303233303931322D312D
:1052C0003630302F7372632F6E65776C69622F6E84
:1052D00065776C69622F6C6962632F7374646C69A3
:1052E000622F6D707265632E630000000000000085
:1052F0000080E03779C34143176E05B5B5B89346D2
:10530000F5F93FE9034F384D321D30F94877825A9D
:105310003CBF737FDD4F1575000000000000F03FBB
:105320000000000000002440000000000000594080
:105330000000000000408F40000000000088C340D3
:1053400000000000006AF8400000000080842E4148
:1053500000000000D01263410000000084D7974194
:105360000000000065CDCD41000000205FA002429A
:10537000000000E876483742000000A2941A6D420F
:10538000000040E59C30A2420000901EC4BCD64202
:1053900000003426F56B0C430080E03779C34143AD
:1053A00000A0D8855734764300C84E676DC1AB4323
:1053B000003D9160E458E143408CB5781DAF154441
:1053C00050EFE2D6E41A4B4492D54D06CFF080441C
:1053D000F64AE1C7022DB544B49DD9794378EA4431
:1053E00005000000190000007D0000004300504F40
:1053F000534958002E002C2066756E6374696F6ED9
:105400003A2000617373657274696F6E2022257390
:1054100022206661696C65643A2066696C652022A9
:105420002573222C206C696E6520256425732573F5
:105430000A000020202020202020202028282828A2
:105440002820202020202020202020202020202054
:1054500020202088101010101010101010101010A4
:1054600010101004040404040404040404101010B4
:105470001010101041414141414101010101010160
:1054800001010101010101010101010101011010EE
:105490001010101042424242424202020202020234
:1054A00002020202020202020202020202021010C0
:1054B00010102000000000000000000000000000AC
:1054C00000000000000000000000000000000000DC
:1054D00000000000000000000000000000000000CC
:1054E00000000000000000000000000000000000BC
:1054F00000000000000000000000000000000000AC
:10550000000000000000000000000000000000009B
:10551000000000000000000000000000000000008B
:10552000000000000000000000000000000000007B
:10553000000000232D302B2000686C4C006566674E
:10554000454647000000000000000000010203047F
:1055500006070809FB21F93FFB2109407CD91240CD
:10556000FB2119407A6A1F407CD92240BBFD2540AF
:10557000FB2129403A462C407A6A2F405C47314053
:105580007CD932409C6B3440BBFD3540DB8F3740CB
:10559000FB2139401BB43A403A463C405AD83D4082
:1055A0007A6A3F404C7E40405C4741406C1042402C
:1055B0007CD942408CA243409C6B4440AC34454073
:1055C000BBFD4540CBC64640DB8F4740EB584840CB
:1055D000FB21494083F9A200444E6E00FC291500CE
:1055E000D1572700DD34F50062DBC0003C999500FF
:1055F000419043006351FE00BBDEAB00B761C500C4
:105600003A6E2400D24D42004906E00009EA2E001D
:105610001C92D100EB1DFE0029B11C00E83EA70042
:10562000F535820044BB2E009CE98400B42670004E
:10563000417E5F00D6913900538339009CF43900D4
:105640008B5F840028F9BD00F81F3B00DEFF970048
:105650000F980500112FEF000A5A8B006D1F6D0087
:10566000CF7E360009CB2700464FB7009E663F002D
:105670002DEA5F00BA277500E5EBC7003D7BF1001E
:10568000F739070092528A00FB6BEA001FB15F00F6
:10569000085D8D00300356007BFC4600F0AB6B00CC
:1056A00020BCCF0036F49A00E3A91D005E61910092
:1056B000081BE60085996500A0145F008D40680016
:1056C00080D8FF0027734D0006063100CA5615002A
:1056D000C9A873007BE260006B8CC0000000000072
:1056E00000000040FB21F93F000000002D44743E03
:1056F000000000809846F83C0000006051CC783BE8
:1057000000000080831BF0390000004020257A381B
:10571000000000802282E336000000001DF369359E
:10572000020000000300000004000000060000006A
:045730000502000866
:04573400E101000887
:105738000000000003000000080200200000000034
:105748000802002070020020D8020020000000009B
:105758000000000000000000000000000000000041
:105768000000000000000000000000000000000031
:105778000000000000000000000000000000000021
:1057880000000000000000000C00002043000000A2
:105798000000000000000000000000000000000001
:1057A80000000000000000000000000043000000AE
:1057B80000000000000000000000000000000000E1
:1057C800000000000000000000000000430000008E
:1057D80000000000000000000000000000000000C1
:1057E800000000000000000000000000430000006E
:1057F80000000000000000000000000000000000A1
:10580800000000000000000000000000430000004D
:105818000000000000000000000000000000000080
:10582800000000000000000000000000430000002D
:105838000000000000000000000000000000000060
:10584800000000000000000000000000430000000D
:105858000000000000000000000000000000000040
:10586800000000000000000000000000793000087F
:10587800553000080000000032540008F4530008B6
:1058880031540008315400083154000831540008DC
:1058980031540008315400083154000831540008CC
:1058A80031540008FFFFFFFFFFFFFFFFFFFFFFFF6F
:1058B800FFFF000001004153434949000000000078
:1058C80000000000000000000000000000000000D0
:1058D8000000000000004153434949000000000057
:1058E80000000000000000000000000000000000B0
:1058F8000000000000000000E8030000E8030000CA
:10590800E803000000004040CDCCCC3DCDCCCC3DE0
:0C59180000002041000040400024F4008A
:040000050800402D82
:00000001FF
